{
  "contractName": "DNSRegistry",
  "abi": [
    {
      "anonymous": false,
      "inputs": [
        {
          "indexed": false,
          "internalType": "string",
          "name": "domain",
          "type": "string"
        },
        {
          "indexed": false,
          "internalType": "string",
          "name": "ip",
          "type": "string"
        },
        {
          "indexed": false,
          "internalType": "address",
          "name": "owner",
          "type": "address"
        }
      ],
      "name": "DomainRegistered",
      "type": "event"
    },
    {
      "anonymous": false,
      "inputs": [
        {
          "indexed": false,
          "internalType": "string",
          "name": "domain",
          "type": "string"
        },
        {
          "indexed": false,
          "internalType": "string",
          "name": "ip",
          "type": "string"
        }
      ],
      "name": "DomainUpdated",
      "type": "event"
    },
    {
      "inputs": [
        {
          "internalType": "string",
          "name": "domain",
          "type": "string"
        },
        {
          "internalType": "string",
          "name": "ip",
          "type": "string"
        }
      ],
      "name": "registerDomain",
      "outputs": [],
      "stateMutability": "nonpayable",
      "type": "function"
    },
    {
      "inputs": [
        {
          "internalType": "string",
          "name": "domain",
          "type": "string"
        },
        {
          "internalType": "string",
          "name": "ip",
          "type": "string"
        }
      ],
      "name": "updateDomain",
      "outputs": [],
      "stateMutability": "nonpayable",
      "type": "function"
    },
    {
      "inputs": [
        {
          "internalType": "string",
          "name": "domain",
          "type": "string"
        }
      ],
      "name": "getIP",
      "outputs": [
        {
          "internalType": "string",
          "name": "",
          "type": "string"
        }
      ],
      "stateMutability": "view",
      "type": "function",
      "constant": true
    }
  ],
  "bytecode": "0x608060405234801561001057600080fd5b506109c1806100206000396000f3fe608060405234801561001057600080fd5b50600436106100415760003560e01c806387a3d555146100465780638b5c01cd146100625780639774622f14610092575b600080fd5b610060600480360381019061005b919061056e565b6100ae565b005b61007c6004803603810190610077919061052d565b61024d565b6040516100899190610710565b60405180910390f35b6100ac60048036038101906100a7919061056e565b610300565b005b600073ffffffffffffffffffffffffffffffffffffffff166000836040516100d691906106f9565b908152602001604051809103902060010160009054906101000a900473ffffffffffffffffffffffffffffffffffffffff1673ffffffffffffffffffffffffffffffffffffffff161461015e576040517f08c379a0000000000000000000000000000000000000000000000000000000008152600401610155906107ce565b60405180910390fd5b60405180604001604052808281526020013373ffffffffffffffffffffffffffffffffffffffff1681525060008360405161019991906106f9565b908152602001604051809103902060008201518160000190805190602001906101c3929190610422565b5060208201518160010160006101000a81548173ffffffffffffffffffffffffffffffffffffffff021916908373ffffffffffffffffffffffffffffffffffffffff1602179055509050507f8e1353a1c19c0496b7461bad8f9954f50411bb95889443e6e2737ad821cd70ef82823360405161024193929190610769565b60405180910390a15050565b606060008260405161025f91906106f9565b9081526020016040518091039020600001805461027b906108ea565b80601f01602080910402602001604051908101604052809291908181526020018280546102a7906108ea565b80156102f45780601f106102c9576101008083540402835291602001916102f4565b820191906000526020600020905b8154815290600101906020018083116102d757829003601f168201915b50505050509050919050565b3373ffffffffffffffffffffffffffffffffffffffff1660008360405161032791906106f9565b908152602001604051809103902060010160009054906101000a900473ffffffffffffffffffffffffffffffffffffffff1673ffffffffffffffffffffffffffffffffffffffff16146103af576040517f08c379a00000000000000000000000000000000000000000000000000000000081526004016103a6906107ae565b60405180910390fd5b806000836040516103c091906106f9565b908152602001604051809103902060000190805190602001906103e4929190610422565b507f0e540ff014403c501655ba5fcd7f36ec5f6df99f851e513e7d6c4c93da1121748282604051610416929190610732565b60405180910390a15050565b82805461042e906108ea565b90600052602060002090601f0160209004810192826104505760008555610497565b82601f1061046957805160ff1916838001178555610497565b82800160010185558215610497579182015b8281111561049657825182559160200191906001019061047b565b5b5090506104a491906104a8565b5090565b5b808211156104c15760008160009055506001016104a9565b5090565b60006104d86104d38461081f565b6107ee565b9050828152602081018484840111156104f057600080fd5b6104fb8482856108a8565b509392505050565b600082601f83011261051457600080fd5b81356105248482602086016104c5565b91505092915050565b60006020828403121561053f57600080fd5b600082013567ffffffffffffffff81111561055957600080fd5b61056584828501610503565b91505092915050565b6000806040838503121561058157600080fd5b600083013567ffffffffffffffff81111561059b57600080fd5b6105a785828601610503565b925050602083013567ffffffffffffffff8111156105c457600080fd5b6105d085828601610503565b9150509250929050565b6105e381610876565b82525050565b60006105f48261084f565b6105fe818561085a565b935061060e8185602086016108b7565b6106178161097a565b840191505092915050565b600061062d8261084f565b610637818561086b565b93506106478185602086016108b7565b80840191505092915050565b600061066060248361085a565b91507f4f6e6c7920746865206f776e65722063616e207570646174652074686520646f60008301527f6d61696e000000000000000000000000000000000000000000000000000000006020830152604082019050919050565b60006106c660198361085a565b91507f446f6d61696e20616c72656164792072656769737465726564000000000000006000830152602082019050919050565b60006107058284610622565b915081905092915050565b6000602082019050818103600083015261072a81846105e9565b905092915050565b6000604082019050818103600083015261074c81856105e9565b9050818103602083015261076081846105e9565b90509392505050565b6000606082019050818103600083015261078381866105e9565b9050818103602083015261079781856105e9565b90506107a660408301846105da565b949350505050565b600060208201905081810360008301526107c781610653565b9050919050565b600060208201905081810360008301526107e7816106b9565b9050919050565b6000604051905081810181811067ffffffffffffffff821117156108155761081461094b565b5b8060405250919050565b600067ffffffffffffffff82111561083a5761083961094b565b5b601f19601f8301169050602081019050919050565b600081519050919050565b600082825260208201905092915050565b600081905092915050565b600061088182610888565b9050919050565b600073ffffffffffffffffffffffffffffffffffffffff82169050919050565b82818337600083830152505050565b60005b838110156108d55780820151818401526020810190506108ba565b838111156108e4576000848401525b50505050565b6000600282049050600182168061090257607f821691505b602082108114156109165761091561091c565b5b50919050565b7f4e487b7100000000000000000000000000000000000000000000000000000000600052602260045260246000fd5b7f4e487b7100000000000000000000000000000000000000000000000000000000600052604160045260246000fd5b6000601f19601f830116905091905056fea2646970667358221220c1dfe80de40ec254664f03cbea4a1d8c71bbf70551a8ec923c81b689882d04a564736f6c63430008000033",
  "immutableReferences": {},
  "source": "// SPDX-License-Identifier: MIT\r\npragma solidity ^0.8.0;\r\n\r\ncontract DNSRegistry {\r\n    struct Domain {\r\n        string ip;\r\n        address owner;\r\n    }\r\n\r\n    mapping(string => Domain) private domains;\r\n\r\n    event DomainRegistered(string domain, string ip, address owner);\r\n    event DomainUpdated(string domain, string ip);\r\n\r\n    function registerDomain(string memory domain, string memory ip) public {\r\n        require(domains[domain].owner == address(0), \"Domain already registered\");\r\n        domains[domain] = Domain(ip, msg.sender);\r\n        emit DomainRegistered(domain, ip, msg.sender);\r\n    }\r\n\r\n    function updateDomain(string memory domain, string memory ip) public {\r\n        require(domains[domain].owner == msg.sender, \"Only the owner can update the domain\");\r\n        domains[domain].ip = ip;\r\n        emit DomainUpdated(domain, ip);\r\n    }\r\n\r\n    function getIP(string memory domain) public view returns (string memory) {\r\n        return domains[domain].ip;\r\n    }\r\n}",
  "sourcePath": "C:\\Users\\ARAVIND\\BlockchainDNS\\contracts\\DNSRegistry.sol",
  "compiler": {
    "name": "solc",
    "version": "0.8.0+commit.c7dfd78e.Emscripten.clang"
  },
  "schemaVersion": "3.4.16",
  "updatedAt": "2024-08-10T17:46:16.138Z",
  "networkType": "ethereum",
  "devdoc": {
    "kind": "dev",
    "methods": {},
    "version": 1
  },
  "userdoc": {
    "kind": "user",
    "methods": {},
    "version": 1
  }
}